{
	"data": {
		"bytecode": {
			"linkReferences": {},
			"object": "608060405234801561000f575f80fd5b506109d98061001d5f395ff3fe608060405234801561000f575f80fd5b506004361061003f575f3560e01c8063520fa31b146100435780639e7a13ad1461005f578063e2c93c2914610091575b5f80fd5b61005d600480360381019061005891906104a2565b6100ad565b005b61007960048036038101906100749190610522565b61017b565b60405161008893929190610649565b60405180910390f35b6100ab60048036038101906100a69190610522565b610232565b005b60405180606001604052808481526020018381526020018260028111156100d7576100d66105d6565b5b8152505f808681526020019081526020015f205f820151815f0190816100fd919061087f565b50602082015181600101556040820151816002015f6101000a81548160ff02191690836002811115610132576101316105d6565b5b02179055509050507f4299238ee2354745d68b852fa2160b446043465adbbb60d49f0bbcb23184dbbc84848360405161016d9392919061094e565b60405180910390a150505050565b5f602052805f5260405f205f91509050805f018054610199906106b2565b80601f01602080910402602001604051908101604052809291908181526020018280546101c5906106b2565b80156102105780601f106101e757610100808354040283529160200191610210565b820191905f5260205f20905b8154815290600101906020018083116101f357829003601f168201915b505050505090806001015490806002015f9054906101000a900460ff16905083565b5f808281526020019081526020015f205f8082015f61025191906102a7565b600182015f9055600282015f6101000a81549060ff021916905550507fde16a2e807742a99c9bdd67987b077d5e3ec4e0a477f61e8ee98e42c10cd229c8160405161029c919061098a565b60405180910390a150565b5080546102b3906106b2565b5f825580601f106102c457506102e1565b601f0160209004905f5260205f20908101906102e091906102e4565b5b50565b5b808211156102fb575f815f9055506001016102e5565b5090565b5f604051905090565b5f80fd5b5f80fd5b5f819050919050565b61032281610310565b811461032c575f80fd5b50565b5f8135905061033d81610319565b92915050565b5f80fd5b5f80fd5b5f601f19601f8301169050919050565b7f4e487b71000000000000000000000000000000000000000000000000000000005f52604160045260245ffd5b6103918261034b565b810181811067ffffffffffffffff821117156103b0576103af61035b565b5b80604052505050565b5f6103c26102ff565b90506103ce8282610388565b919050565b5f67ffffffffffffffff8211156103ed576103ec61035b565b5b6103f68261034b565b9050602081019050919050565b828183375f83830152505050565b5f61042361041e846103d3565b6103b9565b90508281526020810184848401111561043f5761043e610347565b5b61044a848285610403565b509392505050565b5f82601f83011261046657610465610343565b5b8135610476848260208601610411565b91505092915050565b6003811061048b575f80fd5b50565b5f8135905061049c8161047f565b92915050565b5f805f80608085870312156104ba576104b9610308565b5b5f6104c78782880161032f565b945050602085013567ffffffffffffffff8111156104e8576104e761030c565b5b6104f487828801610452565b93505060406105058782880161032f565b92505060606105168782880161048e565b91505092959194509250565b5f6020828403121561053757610536610308565b5b5f6105448482850161032f565b91505092915050565b5f81519050919050565b5f82825260208201905092915050565b5f5b83811015610584578082015181840152602081019050610569565b5f8484015250505050565b5f6105998261054d565b6105a38185610557565b93506105b3818560208601610567565b6105bc8161034b565b840191505092915050565b6105d081610310565b82525050565b7f4e487b71000000000000000000000000000000000000000000000000000000005f52602160045260245ffd5b60038110610614576106136105d6565b5b50565b5f81905061062482610603565b919050565b5f61063382610617565b9050919050565b61064381610629565b82525050565b5f6060820190508181035f830152610661818661058f565b905061067060208301856105c7565b61067d604083018461063a565b949350505050565b7f4e487b71000000000000000000000000000000000000000000000000000000005f52602260045260245ffd5b5f60028204905060018216806106c957607f821691505b6020821081036106dc576106db610685565b5b50919050565b5f819050815f5260205f209050919050565b5f6020601f8301049050919050565b5f82821b905092915050565b5f6008830261073e7fffffffffffffffffffffffffffffffffffffffffffffffffffffffffffffffff82610703565b6107488683610703565b95508019841693508086168417925050509392505050565b5f819050919050565b5f61078361077e61077984610310565b610760565b610310565b9050919050565b5f819050919050565b61079c83610769565b6107b06107a88261078a565b84845461070f565b825550505050565b5f90565b6107c46107b8565b6107cf818484610793565b505050565b5b818110156107f2576107e75f826107bc565b6001810190506107d5565b5050565b601f82111561083757610808816106e2565b610811846106f4565b81016020851015610820578190505b61083461082c856106f4565b8301826107d4565b50505b505050565b5f82821c905092915050565b5f6108575f198460080261083c565b1980831691505092915050565b5f61086f8383610848565b9150826002028217905092915050565b6108888261054d565b67ffffffffffffffff8111156108a1576108a061035b565b5b6108ab82546106b2565b6108b68282856107f6565b5f60209050601f8311600181146108e7575f84156108d5578287015190505b6108df8582610864565b865550610946565b601f1984166108f5866106e2565b5f5b8281101561091c578489015182556001820191506020850194506020810190506108f7565b868310156109395784890151610935601f891682610848565b8355505b6001600288020188555050505b505050505050565b5f6060820190506109615f8301866105c7565b8181036020830152610973818561058f565b9050610982604083018461063a565b949350505050565b5f60208201905061099d5f8301846105c7565b9291505056fea264697066735822122093a8e885dbf023f6259572e0c2f652ec94cfd989ca06e68a8f66981d5e81dadc64736f6c63430008160033",
			"opcodes": "PUSH1 0x80 PUSH1 0x40 MSTORE CALLVALUE DUP1 ISZERO PUSH2 0xF JUMPI PUSH0 DUP1 REVERT JUMPDEST POP PUSH2 0x9D9 DUP1 PUSH2 0x1D PUSH0 CODECOPY PUSH0 RETURN INVALID PUSH1 0x80 PUSH1 0x40 MSTORE CALLVALUE DUP1 ISZERO PUSH2 0xF JUMPI PUSH0 DUP1 REVERT JUMPDEST POP PUSH1 0x4 CALLDATASIZE LT PUSH2 0x3F JUMPI PUSH0 CALLDATALOAD PUSH1 0xE0 SHR DUP1 PUSH4 0x520FA31B EQ PUSH2 0x43 JUMPI DUP1 PUSH4 0x9E7A13AD EQ PUSH2 0x5F JUMPI DUP1 PUSH4 0xE2C93C29 EQ PUSH2 0x91 JUMPI JUMPDEST PUSH0 DUP1 REVERT JUMPDEST PUSH2 0x5D PUSH1 0x4 DUP1 CALLDATASIZE SUB DUP2 ADD SWAP1 PUSH2 0x58 SWAP2 SWAP1 PUSH2 0x4A2 JUMP JUMPDEST PUSH2 0xAD JUMP JUMPDEST STOP JUMPDEST PUSH2 0x79 PUSH1 0x4 DUP1 CALLDATASIZE SUB DUP2 ADD SWAP1 PUSH2 0x74 SWAP2 SWAP1 PUSH2 0x522 JUMP JUMPDEST PUSH2 0x17B JUMP JUMPDEST PUSH1 0x40 MLOAD PUSH2 0x88 SWAP4 SWAP3 SWAP2 SWAP1 PUSH2 0x649 JUMP JUMPDEST PUSH1 0x40 MLOAD DUP1 SWAP2 SUB SWAP1 RETURN JUMPDEST PUSH2 0xAB PUSH1 0x4 DUP1 CALLDATASIZE SUB DUP2 ADD SWAP1 PUSH2 0xA6 SWAP2 SWAP1 PUSH2 0x522 JUMP JUMPDEST PUSH2 0x232 JUMP JUMPDEST STOP JUMPDEST PUSH1 0x40 MLOAD DUP1 PUSH1 0x60 ADD PUSH1 0x40 MSTORE DUP1 DUP5 DUP2 MSTORE PUSH1 0x20 ADD DUP4 DUP2 MSTORE PUSH1 0x20 ADD DUP3 PUSH1 0x2 DUP2 GT ISZERO PUSH2 0xD7 JUMPI PUSH2 0xD6 PUSH2 0x5D6 JUMP JUMPDEST JUMPDEST DUP2 MSTORE POP PUSH0 DUP1 DUP7 DUP2 MSTORE PUSH1 0x20 ADD SWAP1 DUP2 MSTORE PUSH1 0x20 ADD PUSH0 KECCAK256 PUSH0 DUP3 ADD MLOAD DUP2 PUSH0 ADD SWAP1 DUP2 PUSH2 0xFD SWAP2 SWAP1 PUSH2 0x87F JUMP JUMPDEST POP PUSH1 0x20 DUP3 ADD MLOAD DUP2 PUSH1 0x1 ADD SSTORE PUSH1 0x40 DUP3 ADD MLOAD DUP2 PUSH1 0x2 ADD PUSH0 PUSH2 0x100 EXP DUP2 SLOAD DUP2 PUSH1 0xFF MUL NOT AND SWAP1 DUP4 PUSH1 0x2 DUP2 GT ISZERO PUSH2 0x132 JUMPI PUSH2 0x131 PUSH2 0x5D6 JUMP JUMPDEST JUMPDEST MUL OR SWAP1 SSTORE POP SWAP1 POP POP PUSH32 0x4299238EE2354745D68B852FA2160B446043465ADBBB60D49F0BBCB23184DBBC DUP5 DUP5 DUP4 PUSH1 0x40 MLOAD PUSH2 0x16D SWAP4 SWAP3 SWAP2 SWAP1 PUSH2 0x94E JUMP JUMPDEST PUSH1 0x40 MLOAD DUP1 SWAP2 SUB SWAP1 LOG1 POP POP POP POP JUMP JUMPDEST PUSH0 PUSH1 0x20 MSTORE DUP1 PUSH0 MSTORE PUSH1 0x40 PUSH0 KECCAK256 PUSH0 SWAP2 POP SWAP1 POP DUP1 PUSH0 ADD DUP1 SLOAD PUSH2 0x199 SWAP1 PUSH2 0x6B2 JUMP JUMPDEST DUP1 PUSH1 0x1F ADD PUSH1 0x20 DUP1 SWAP2 DIV MUL PUSH1 0x20 ADD PUSH1 0x40 MLOAD SWAP1 DUP2 ADD PUSH1 0x40 MSTORE DUP1 SWAP3 SWAP2 SWAP1 DUP2 DUP2 MSTORE PUSH1 0x20 ADD DUP3 DUP1 SLOAD PUSH2 0x1C5 SWAP1 PUSH2 0x6B2 JUMP JUMPDEST DUP1 ISZERO PUSH2 0x210 JUMPI DUP1 PUSH1 0x1F LT PUSH2 0x1E7 JUMPI PUSH2 0x100 DUP1 DUP4 SLOAD DIV MUL DUP4 MSTORE SWAP2 PUSH1 0x20 ADD SWAP2 PUSH2 0x210 JUMP JUMPDEST DUP3 ADD SWAP2 SWAP1 PUSH0 MSTORE PUSH1 0x20 PUSH0 KECCAK256 SWAP1 JUMPDEST DUP2 SLOAD DUP2 MSTORE SWAP1 PUSH1 0x1 ADD SWAP1 PUSH1 0x20 ADD DUP1 DUP4 GT PUSH2 0x1F3 JUMPI DUP3 SWAP1 SUB PUSH1 0x1F AND DUP3 ADD SWAP2 JUMPDEST POP POP POP POP POP SWAP1 DUP1 PUSH1 0x1 ADD SLOAD SWAP1 DUP1 PUSH1 0x2 ADD PUSH0 SWAP1 SLOAD SWAP1 PUSH2 0x100 EXP SWAP1 DIV PUSH1 0xFF AND SWAP1 POP DUP4 JUMP JUMPDEST PUSH0 DUP1 DUP3 DUP2 MSTORE PUSH1 0x20 ADD SWAP1 DUP2 MSTORE PUSH1 0x20 ADD PUSH0 KECCAK256 PUSH0 DUP1 DUP3 ADD PUSH0 PUSH2 0x251 SWAP2 SWAP1 PUSH2 0x2A7 JUMP JUMPDEST PUSH1 0x1 DUP3 ADD PUSH0 SWAP1 SSTORE PUSH1 0x2 DUP3 ADD PUSH0 PUSH2 0x100 EXP DUP2 SLOAD SWAP1 PUSH1 0xFF MUL NOT AND SWAP1 SSTORE POP POP PUSH32 0xDE16A2E807742A99C9BDD67987B077D5E3EC4E0A477F61E8EE98E42C10CD229C DUP2 PUSH1 0x40 MLOAD PUSH2 0x29C SWAP2 SWAP1 PUSH2 0x98A JUMP JUMPDEST PUSH1 0x40 MLOAD DUP1 SWAP2 SUB SWAP1 LOG1 POP JUMP JUMPDEST POP DUP1 SLOAD PUSH2 0x2B3 SWAP1 PUSH2 0x6B2 JUMP JUMPDEST PUSH0 DUP3 SSTORE DUP1 PUSH1 0x1F LT PUSH2 0x2C4 JUMPI POP PUSH2 0x2E1 JUMP JUMPDEST PUSH1 0x1F ADD PUSH1 0x20 SWAP1 DIV SWAP1 PUSH0 MSTORE PUSH1 0x20 PUSH0 KECCAK256 SWAP1 DUP2 ADD SWAP1 PUSH2 0x2E0 SWAP2 SWAP1 PUSH2 0x2E4 JUMP JUMPDEST JUMPDEST POP JUMP JUMPDEST JUMPDEST DUP1 DUP3 GT ISZERO PUSH2 0x2FB JUMPI PUSH0 DUP2 PUSH0 SWAP1 SSTORE POP PUSH1 0x1 ADD PUSH2 0x2E5 JUMP JUMPDEST POP SWAP1 JUMP JUMPDEST PUSH0 PUSH1 0x40 MLOAD SWAP1 POP SWAP1 JUMP JUMPDEST PUSH0 DUP1 REVERT JUMPDEST PUSH0 DUP1 REVERT JUMPDEST PUSH0 DUP2 SWAP1 POP SWAP2 SWAP1 POP JUMP JUMPDEST PUSH2 0x322 DUP2 PUSH2 0x310 JUMP JUMPDEST DUP2 EQ PUSH2 0x32C JUMPI PUSH0 DUP1 REVERT JUMPDEST POP JUMP JUMPDEST PUSH0 DUP2 CALLDATALOAD SWAP1 POP PUSH2 0x33D DUP2 PUSH2 0x319 JUMP JUMPDEST SWAP3 SWAP2 POP POP JUMP JUMPDEST PUSH0 DUP1 REVERT JUMPDEST PUSH0 DUP1 REVERT JUMPDEST PUSH0 PUSH1 0x1F NOT PUSH1 0x1F DUP4 ADD AND SWAP1 POP SWAP2 SWAP1 POP JUMP JUMPDEST PUSH32 0x4E487B7100000000000000000000000000000000000000000000000000000000 PUSH0 MSTORE PUSH1 0x41 PUSH1 0x4 MSTORE PUSH1 0x24 PUSH0 REVERT JUMPDEST PUSH2 0x391 DUP3 PUSH2 0x34B JUMP JUMPDEST DUP2 ADD DUP2 DUP2 LT PUSH8 0xFFFFFFFFFFFFFFFF DUP3 GT OR ISZERO PUSH2 0x3B0 JUMPI PUSH2 0x3AF PUSH2 0x35B JUMP JUMPDEST JUMPDEST DUP1 PUSH1 0x40 MSTORE POP POP POP JUMP JUMPDEST PUSH0 PUSH2 0x3C2 PUSH2 0x2FF JUMP JUMPDEST SWAP1 POP PUSH2 0x3CE DUP3 DUP3 PUSH2 0x388 JUMP JUMPDEST SWAP2 SWAP1 POP JUMP JUMPDEST PUSH0 PUSH8 0xFFFFFFFFFFFFFFFF DUP3 GT ISZERO PUSH2 0x3ED JUMPI PUSH2 0x3EC PUSH2 0x35B JUMP JUMPDEST JUMPDEST PUSH2 0x3F6 DUP3 PUSH2 0x34B JUMP JUMPDEST SWAP1 POP PUSH1 0x20 DUP2 ADD SWAP1 POP SWAP2 SWAP1 POP JUMP JUMPDEST DUP3 DUP2 DUP4 CALLDATACOPY PUSH0 DUP4 DUP4 ADD MSTORE POP POP POP JUMP JUMPDEST PUSH0 PUSH2 0x423 PUSH2 0x41E DUP5 PUSH2 0x3D3 JUMP JUMPDEST PUSH2 0x3B9 JUMP JUMPDEST SWAP1 POP DUP3 DUP2 MSTORE PUSH1 0x20 DUP2 ADD DUP5 DUP5 DUP5 ADD GT ISZERO PUSH2 0x43F JUMPI PUSH2 0x43E PUSH2 0x347 JUMP JUMPDEST JUMPDEST PUSH2 0x44A DUP5 DUP3 DUP6 PUSH2 0x403 JUMP JUMPDEST POP SWAP4 SWAP3 POP POP POP JUMP JUMPDEST PUSH0 DUP3 PUSH1 0x1F DUP4 ADD SLT PUSH2 0x466 JUMPI PUSH2 0x465 PUSH2 0x343 JUMP JUMPDEST JUMPDEST DUP2 CALLDATALOAD PUSH2 0x476 DUP5 DUP3 PUSH1 0x20 DUP7 ADD PUSH2 0x411 JUMP JUMPDEST SWAP2 POP POP SWAP3 SWAP2 POP POP JUMP JUMPDEST PUSH1 0x3 DUP2 LT PUSH2 0x48B JUMPI PUSH0 DUP1 REVERT JUMPDEST POP JUMP JUMPDEST PUSH0 DUP2 CALLDATALOAD SWAP1 POP PUSH2 0x49C DUP2 PUSH2 0x47F JUMP JUMPDEST SWAP3 SWAP2 POP POP JUMP JUMPDEST PUSH0 DUP1 PUSH0 DUP1 PUSH1 0x80 DUP6 DUP8 SUB SLT ISZERO PUSH2 0x4BA JUMPI PUSH2 0x4B9 PUSH2 0x308 JUMP JUMPDEST JUMPDEST PUSH0 PUSH2 0x4C7 DUP8 DUP3 DUP9 ADD PUSH2 0x32F JUMP JUMPDEST SWAP5 POP POP PUSH1 0x20 DUP6 ADD CALLDATALOAD PUSH8 0xFFFFFFFFFFFFFFFF DUP2 GT ISZERO PUSH2 0x4E8 JUMPI PUSH2 0x4E7 PUSH2 0x30C JUMP JUMPDEST JUMPDEST PUSH2 0x4F4 DUP8 DUP3 DUP9 ADD PUSH2 0x452 JUMP JUMPDEST SWAP4 POP POP PUSH1 0x40 PUSH2 0x505 DUP8 DUP3 DUP9 ADD PUSH2 0x32F JUMP JUMPDEST SWAP3 POP POP PUSH1 0x60 PUSH2 0x516 DUP8 DUP3 DUP9 ADD PUSH2 0x48E JUMP JUMPDEST SWAP2 POP POP SWAP3 SWAP6 SWAP2 SWAP5 POP SWAP3 POP JUMP JUMPDEST PUSH0 PUSH1 0x20 DUP3 DUP5 SUB SLT ISZERO PUSH2 0x537 JUMPI PUSH2 0x536 PUSH2 0x308 JUMP JUMPDEST JUMPDEST PUSH0 PUSH2 0x544 DUP5 DUP3 DUP6 ADD PUSH2 0x32F JUMP JUMPDEST SWAP2 POP POP SWAP3 SWAP2 POP POP JUMP JUMPDEST PUSH0 DUP2 MLOAD SWAP1 POP SWAP2 SWAP1 POP JUMP JUMPDEST PUSH0 DUP3 DUP3 MSTORE PUSH1 0x20 DUP3 ADD SWAP1 POP SWAP3 SWAP2 POP POP JUMP JUMPDEST PUSH0 JUMPDEST DUP4 DUP2 LT ISZERO PUSH2 0x584 JUMPI DUP1 DUP3 ADD MLOAD DUP2 DUP5 ADD MSTORE PUSH1 0x20 DUP2 ADD SWAP1 POP PUSH2 0x569 JUMP JUMPDEST PUSH0 DUP5 DUP5 ADD MSTORE POP POP POP POP JUMP JUMPDEST PUSH0 PUSH2 0x599 DUP3 PUSH2 0x54D JUMP JUMPDEST PUSH2 0x5A3 DUP2 DUP6 PUSH2 0x557 JUMP JUMPDEST SWAP4 POP PUSH2 0x5B3 DUP2 DUP6 PUSH1 0x20 DUP7 ADD PUSH2 0x567 JUMP JUMPDEST PUSH2 0x5BC DUP2 PUSH2 0x34B JUMP JUMPDEST DUP5 ADD SWAP2 POP POP SWAP3 SWAP2 POP POP JUMP JUMPDEST PUSH2 0x5D0 DUP2 PUSH2 0x310 JUMP JUMPDEST DUP3 MSTORE POP POP JUMP JUMPDEST PUSH32 0x4E487B7100000000000000000000000000000000000000000000000000000000 PUSH0 MSTORE PUSH1 0x21 PUSH1 0x4 MSTORE PUSH1 0x24 PUSH0 REVERT JUMPDEST PUSH1 0x3 DUP2 LT PUSH2 0x614 JUMPI PUSH2 0x613 PUSH2 0x5D6 JUMP JUMPDEST JUMPDEST POP JUMP JUMPDEST PUSH0 DUP2 SWAP1 POP PUSH2 0x624 DUP3 PUSH2 0x603 JUMP JUMPDEST SWAP2 SWAP1 POP JUMP JUMPDEST PUSH0 PUSH2 0x633 DUP3 PUSH2 0x617 JUMP JUMPDEST SWAP1 POP SWAP2 SWAP1 POP JUMP JUMPDEST PUSH2 0x643 DUP2 PUSH2 0x629 JUMP JUMPDEST DUP3 MSTORE POP POP JUMP JUMPDEST PUSH0 PUSH1 0x60 DUP3 ADD SWAP1 POP DUP2 DUP2 SUB PUSH0 DUP4 ADD MSTORE PUSH2 0x661 DUP2 DUP7 PUSH2 0x58F JUMP JUMPDEST SWAP1 POP PUSH2 0x670 PUSH1 0x20 DUP4 ADD DUP6 PUSH2 0x5C7 JUMP JUMPDEST PUSH2 0x67D PUSH1 0x40 DUP4 ADD DUP5 PUSH2 0x63A JUMP JUMPDEST SWAP5 SWAP4 POP POP POP POP JUMP JUMPDEST PUSH32 0x4E487B7100000000000000000000000000000000000000000000000000000000 PUSH0 MSTORE PUSH1 0x22 PUSH1 0x4 MSTORE PUSH1 0x24 PUSH0 REVERT JUMPDEST PUSH0 PUSH1 0x2 DUP3 DIV SWAP1 POP PUSH1 0x1 DUP3 AND DUP1 PUSH2 0x6C9 JUMPI PUSH1 0x7F DUP3 AND SWAP2 POP JUMPDEST PUSH1 0x20 DUP3 LT DUP2 SUB PUSH2 0x6DC JUMPI PUSH2 0x6DB PUSH2 0x685 JUMP JUMPDEST JUMPDEST POP SWAP2 SWAP1 POP JUMP JUMPDEST PUSH0 DUP2 SWAP1 POP DUP2 PUSH0 MSTORE PUSH1 0x20 PUSH0 KECCAK256 SWAP1 POP SWAP2 SWAP1 POP JUMP JUMPDEST PUSH0 PUSH1 0x20 PUSH1 0x1F DUP4 ADD DIV SWAP1 POP SWAP2 SWAP1 POP JUMP JUMPDEST PUSH0 DUP3 DUP3 SHL SWAP1 POP SWAP3 SWAP2 POP POP JUMP JUMPDEST PUSH0 PUSH1 0x8 DUP4 MUL PUSH2 0x73E PUSH32 0xFFFFFFFFFFFFFFFFFFFFFFFFFFFFFFFFFFFFFFFFFFFFFFFFFFFFFFFFFFFFFFFF DUP3 PUSH2 0x703 JUMP JUMPDEST PUSH2 0x748 DUP7 DUP4 PUSH2 0x703 JUMP JUMPDEST SWAP6 POP DUP1 NOT DUP5 AND SWAP4 POP DUP1 DUP7 AND DUP5 OR SWAP3 POP POP POP SWAP4 SWAP3 POP POP POP JUMP JUMPDEST PUSH0 DUP2 SWAP1 POP SWAP2 SWAP1 POP JUMP JUMPDEST PUSH0 PUSH2 0x783 PUSH2 0x77E PUSH2 0x779 DUP5 PUSH2 0x310 JUMP JUMPDEST PUSH2 0x760 JUMP JUMPDEST PUSH2 0x310 JUMP JUMPDEST SWAP1 POP SWAP2 SWAP1 POP JUMP JUMPDEST PUSH0 DUP2 SWAP1 POP SWAP2 SWAP1 POP JUMP JUMPDEST PUSH2 0x79C DUP4 PUSH2 0x769 JUMP JUMPDEST PUSH2 0x7B0 PUSH2 0x7A8 DUP3 PUSH2 0x78A JUMP JUMPDEST DUP5 DUP5 SLOAD PUSH2 0x70F JUMP JUMPDEST DUP3 SSTORE POP POP POP POP JUMP JUMPDEST PUSH0 SWAP1 JUMP JUMPDEST PUSH2 0x7C4 PUSH2 0x7B8 JUMP JUMPDEST PUSH2 0x7CF DUP2 DUP5 DUP5 PUSH2 0x793 JUMP JUMPDEST POP POP POP JUMP JUMPDEST JUMPDEST DUP2 DUP2 LT ISZERO PUSH2 0x7F2 JUMPI PUSH2 0x7E7 PUSH0 DUP3 PUSH2 0x7BC JUMP JUMPDEST PUSH1 0x1 DUP2 ADD SWAP1 POP PUSH2 0x7D5 JUMP JUMPDEST POP POP JUMP JUMPDEST PUSH1 0x1F DUP3 GT ISZERO PUSH2 0x837 JUMPI PUSH2 0x808 DUP2 PUSH2 0x6E2 JUMP JUMPDEST PUSH2 0x811 DUP5 PUSH2 0x6F4 JUMP JUMPDEST DUP2 ADD PUSH1 0x20 DUP6 LT ISZERO PUSH2 0x820 JUMPI DUP2 SWAP1 POP JUMPDEST PUSH2 0x834 PUSH2 0x82C DUP6 PUSH2 0x6F4 JUMP JUMPDEST DUP4 ADD DUP3 PUSH2 0x7D4 JUMP JUMPDEST POP POP JUMPDEST POP POP POP JUMP JUMPDEST PUSH0 DUP3 DUP3 SHR SWAP1 POP SWAP3 SWAP2 POP POP JUMP JUMPDEST PUSH0 PUSH2 0x857 PUSH0 NOT DUP5 PUSH1 0x8 MUL PUSH2 0x83C JUMP JUMPDEST NOT DUP1 DUP4 AND SWAP2 POP POP SWAP3 SWAP2 POP POP JUMP JUMPDEST PUSH0 PUSH2 0x86F DUP4 DUP4 PUSH2 0x848 JUMP JUMPDEST SWAP2 POP DUP3 PUSH1 0x2 MUL DUP3 OR SWAP1 POP SWAP3 SWAP2 POP POP JUMP JUMPDEST PUSH2 0x888 DUP3 PUSH2 0x54D JUMP JUMPDEST PUSH8 0xFFFFFFFFFFFFFFFF DUP2 GT ISZERO PUSH2 0x8A1 JUMPI PUSH2 0x8A0 PUSH2 0x35B JUMP JUMPDEST JUMPDEST PUSH2 0x8AB DUP3 SLOAD PUSH2 0x6B2 JUMP JUMPDEST PUSH2 0x8B6 DUP3 DUP3 DUP6 PUSH2 0x7F6 JUMP JUMPDEST PUSH0 PUSH1 0x20 SWAP1 POP PUSH1 0x1F DUP4 GT PUSH1 0x1 DUP2 EQ PUSH2 0x8E7 JUMPI PUSH0 DUP5 ISZERO PUSH2 0x8D5 JUMPI DUP3 DUP8 ADD MLOAD SWAP1 POP JUMPDEST PUSH2 0x8DF DUP6 DUP3 PUSH2 0x864 JUMP JUMPDEST DUP7 SSTORE POP PUSH2 0x946 JUMP JUMPDEST PUSH1 0x1F NOT DUP5 AND PUSH2 0x8F5 DUP7 PUSH2 0x6E2 JUMP JUMPDEST PUSH0 JUMPDEST DUP3 DUP2 LT ISZERO PUSH2 0x91C JUMPI DUP5 DUP10 ADD MLOAD DUP3 SSTORE PUSH1 0x1 DUP3 ADD SWAP2 POP PUSH1 0x20 DUP6 ADD SWAP5 POP PUSH1 0x20 DUP2 ADD SWAP1 POP PUSH2 0x8F7 JUMP JUMPDEST DUP7 DUP4 LT ISZERO PUSH2 0x939 JUMPI DUP5 DUP10 ADD MLOAD PUSH2 0x935 PUSH1 0x1F DUP10 AND DUP3 PUSH2 0x848 JUMP JUMPDEST DUP4 SSTORE POP JUMPDEST PUSH1 0x1 PUSH1 0x2 DUP9 MUL ADD DUP9 SSTORE POP POP POP JUMPDEST POP POP POP POP POP POP JUMP JUMPDEST PUSH0 PUSH1 0x60 DUP3 ADD SWAP1 POP PUSH2 0x961 PUSH0 DUP4 ADD DUP7 PUSH2 0x5C7 JUMP JUMPDEST DUP2 DUP2 SUB PUSH1 0x20 DUP4 ADD MSTORE PUSH2 0x973 DUP2 DUP6 PUSH2 0x58F JUMP JUMPDEST SWAP1 POP PUSH2 0x982 PUSH1 0x40 DUP4 ADD DUP5 PUSH2 0x63A JUMP JUMPDEST SWAP5 SWAP4 POP POP POP POP JUMP JUMPDEST PUSH0 PUSH1 0x20 DUP3 ADD SWAP1 POP PUSH2 0x99D PUSH0 DUP4 ADD DUP5 PUSH2 0x5C7 JUMP JUMPDEST SWAP3 SWAP2 POP POP JUMP INVALID LOG2 PUSH5 0x6970667358 0x22 SLT KECCAK256 SWAP4 0xA8 0xE8 DUP6 0xDB CREATE 0x23 0xF6 0x25 SWAP6 PUSH19 0xE0C2F652EC94CFD989CA06E68A8F66981D5E81 0xDA 0xDC PUSH5 0x736F6C6343 STOP ADDMOD AND STOP CALLER "
		},
		"gasEstimates": {
			"creation": {
				"codeDepositCost": "504200",
				"executionCost": "535",
				"totalCost": "504735"
			},
			"external": {
				"addPerson(uint256,string,uint256,uint8)": "infinite",
				"people(uint256)": "infinite",
				"removePerson(uint256)": "infinite"
			}
		},
		"methodIdentifiers": {
			"addPerson(uint256,string,uint256,uint8)": "520fa31b",
			"people(uint256)": "9e7a13ad",
			"removePerson(uint256)": "e2c93c29"
		}
	},
	"abi": [
		{
			"anonymous": false,
			"inputs": [
				{
					"indexed": false,
					"internalType": "uint256",
					"name": "id",
					"type": "uint256"
				},
				{
					"indexed": false,
					"internalType": "string",
					"name": "name",
					"type": "string"
				},
				{
					"indexed": false,
					"internalType": "enum Storage.UserType",
					"name": "userType",
					"type": "uint8"
				}
			],
			"name": "PersonAdded",
			"type": "event"
		},
		{
			"anonymous": false,
			"inputs": [
				{
					"indexed": false,
					"internalType": "uint256",
					"name": "id",
					"type": "uint256"
				}
			],
			"name": "PersonRemoved",
			"type": "event"
		},
		{
			"inputs": [
				{
					"internalType": "uint256",
					"name": "_id",
					"type": "uint256"
				},
				{
					"internalType": "string",
					"name": "_name",
					"type": "string"
				},
				{
					"internalType": "uint256",
					"name": "_age",
					"type": "uint256"
				},
				{
					"internalType": "enum Storage.UserType",
					"name": "_userType",
					"type": "uint8"
				}
			],
			"name": "addPerson",
			"outputs": [],
			"stateMutability": "nonpayable",
			"type": "function"
		},
		{
			"inputs": [
				{
					"internalType": "uint256",
					"name": "",
					"type": "uint256"
				}
			],
			"name": "people",
			"outputs": [
				{
					"internalType": "string",
					"name": "name",
					"type": "string"
				},
				{
					"internalType": "uint256",
					"name": "age",
					"type": "uint256"
				},
				{
					"internalType": "enum Storage.UserType",
					"name": "userType",
					"type": "uint8"
				}
			],
			"stateMutability": "view",
			"type": "function"
		},
		{
			"inputs": [
				{
					"internalType": "uint256",
					"name": "_id",
					"type": "uint256"
				}
			],
			"name": "removePerson",
			"outputs": [],
			"stateMutability": "nonpayable",
			"type": "function"
		}
	]
}